{
  "contractName": "DaiToken",
  "abi": [
    {
      "inputs": [],
      "stateMutability": "nonpayable",
      "type": "constructor"
    },
    {
      "anonymous": false,
      "inputs": [
        {
          "indexed": true,
          "internalType": "address",
          "name": "_owner",
          "type": "address"
        },
        {
          "indexed": true,
          "internalType": "address",
          "name": "_spender",
          "type": "address"
        },
        {
          "indexed": false,
          "internalType": "uint256",
          "name": "_value",
          "type": "uint256"
        }
      ],
      "name": "Approval",
      "type": "event"
    },
    {
      "anonymous": false,
      "inputs": [
        {
          "indexed": true,
          "internalType": "address",
          "name": "_from",
          "type": "address"
        },
        {
          "indexed": true,
          "internalType": "address",
          "name": "_to",
          "type": "address"
        },
        {
          "indexed": false,
          "internalType": "uint256",
          "name": "_value",
          "type": "uint256"
        }
      ],
      "name": "Transfer",
      "type": "event"
    },
    {
      "inputs": [
        {
          "internalType": "address",
          "name": "",
          "type": "address"
        },
        {
          "internalType": "address",
          "name": "",
          "type": "address"
        }
      ],
      "name": "allowance",
      "outputs": [
        {
          "internalType": "uint256",
          "name": "",
          "type": "uint256"
        }
      ],
      "stateMutability": "view",
      "type": "function",
      "constant": true
    },
    {
      "inputs": [
        {
          "internalType": "address",
          "name": "",
          "type": "address"
        }
      ],
      "name": "balanceOf",
      "outputs": [
        {
          "internalType": "uint256",
          "name": "",
          "type": "uint256"
        }
      ],
      "stateMutability": "view",
      "type": "function",
      "constant": true
    },
    {
      "inputs": [],
      "name": "decimals",
      "outputs": [
        {
          "internalType": "uint8",
          "name": "",
          "type": "uint8"
        }
      ],
      "stateMutability": "view",
      "type": "function",
      "constant": true
    },
    {
      "inputs": [],
      "name": "name",
      "outputs": [
        {
          "internalType": "string",
          "name": "",
          "type": "string"
        }
      ],
      "stateMutability": "view",
      "type": "function",
      "constant": true
    },
    {
      "inputs": [],
      "name": "symbol",
      "outputs": [
        {
          "internalType": "string",
          "name": "",
          "type": "string"
        }
      ],
      "stateMutability": "view",
      "type": "function",
      "constant": true
    },
    {
      "inputs": [],
      "name": "totalSupply",
      "outputs": [
        {
          "internalType": "uint256",
          "name": "",
          "type": "uint256"
        }
      ],
      "stateMutability": "view",
      "type": "function",
      "constant": true
    },
    {
      "inputs": [
        {
          "internalType": "address",
          "name": "_to",
          "type": "address"
        },
        {
          "internalType": "uint256",
          "name": "_value",
          "type": "uint256"
        }
      ],
      "name": "transfer",
      "outputs": [
        {
          "internalType": "bool",
          "name": "success",
          "type": "bool"
        }
      ],
      "stateMutability": "nonpayable",
      "type": "function"
    }
  ],
  "bytecode": "0x60806040526040518060400160405280600a81526020017f4461707020546f6b656e000000000000000000000000000000000000000000008152506000908051906020019061004f92919061011e565b506040518060400160405280600481526020017f44415050000000000000000000000000000000000000000000000000000000008152506001908051906020019061009b92919061011e565b5069d3c21bcecceda10000006002556012600360006101000a81548160ff021916908360ff1602179055503480156100d257600080fd5b50600254600460003373ffffffffffffffffffffffffffffffffffffffff1673ffffffffffffffffffffffffffffffffffffffff16815260200190815260200160002081905550610222565b82805461012a906101c1565b90600052602060002090601f01602090048101928261014c5760008555610193565b82601f1061016557805160ff1916838001178555610193565b82800160010185558215610193579182015b82811115610192578251825591602001919060010190610177565b5b5090506101a091906101a4565b5090565b5b808211156101bd5760008160009055506001016101a5565b5090565b600060028204905060018216806101d957607f821691505b602082108114156101ed576101ec6101f3565b5b50919050565b7f4e487b7100000000000000000000000000000000000000000000000000000000600052602260045260246000fd5b61084d806102316000396000f3fe608060405234801561001057600080fd5b506004361061007d5760003560e01c806370a082311161005b57806370a08231146100dc57806395d89b411461010c578063a9059cbb1461012a578063dd62ed3e1461015a5761007d565b806306fdde031461008257806318160ddd146100a0578063313ce567146100be575b600080fd5b61008a61018a565b60405161009791906105bd565b60405180910390f35b6100a8610218565b6040516100b591906105df565b60405180910390f35b6100c661021e565b6040516100d391906105fa565b60405180910390f35b6100f660048036038101906100f1919061048f565b610231565b60405161010391906105df565b60405180910390f35b610114610249565b60405161012191906105bd565b60405180910390f35b610144600480360381019061013f91906104fc565b6102d7565b60405161015191906105a2565b60405180910390f35b610174600480360381019061016f91906104bc565b610440565b60405161018191906105df565b60405180910390f35b6000805461019790610743565b80601f01602080910402602001604051908101604052809291908181526020018280546101c390610743565b80156102105780601f106101e557610100808354040283529160200191610210565b820191906000526020600020905b8154815290600101906020018083116101f357829003601f168201915b505050505081565b60025481565b600360009054906101000a900460ff1681565b60046020528060005260406000206000915090505481565b6001805461025690610743565b80601f016020809104026020016040519081016040528092919081815260200182805461028290610743565b80156102cf5780601f106102a4576101008083540402835291602001916102cf565b820191906000526020600020905b8154815290600101906020018083116102b257829003601f168201915b505050505081565b600081600460003373ffffffffffffffffffffffffffffffffffffffff1673ffffffffffffffffffffffffffffffffffffffff16815260200190815260200160002054101561032557600080fd5b81600460003373ffffffffffffffffffffffffffffffffffffffff1673ffffffffffffffffffffffffffffffffffffffff16815260200190815260200160002060008282546103749190610687565b9250508190555081600460008573ffffffffffffffffffffffffffffffffffffffff1673ffffffffffffffffffffffffffffffffffffffff16815260200190815260200160002060008282546103ca9190610631565b925050819055508273ffffffffffffffffffffffffffffffffffffffff163373ffffffffffffffffffffffffffffffffffffffff167fddf252ad1be2c89b69c2b068fc378daa952ba7f163c4a11628f55a4df523b3ef8460405161042e91906105df565b60405180910390a36001905092915050565b6005602052816000526040600020602052806000526040600020600091509150505481565b600081359050610474816107e9565b92915050565b60008135905061048981610800565b92915050565b6000602082840312156104a5576104a46107d3565b5b60006104b384828501610465565b91505092915050565b600080604083850312156104d3576104d26107d3565b5b60006104e185828601610465565b92505060206104f285828601610465565b9150509250929050565b60008060408385031215610513576105126107d3565b5b600061052185828601610465565b92505060206105328582860161047a565b9150509250929050565b610545816106cd565b82525050565b600061055682610615565b6105608185610620565b9350610570818560208601610710565b610579816107d8565b840191505092915050565b61058d816106f9565b82525050565b61059c81610703565b82525050565b60006020820190506105b7600083018461053c565b92915050565b600060208201905081810360008301526105d7818461054b565b905092915050565b60006020820190506105f46000830184610584565b92915050565b600060208201905061060f6000830184610593565b92915050565b600081519050919050565b600082825260208201905092915050565b600061063c826106f9565b9150610647836106f9565b9250827fffffffffffffffffffffffffffffffffffffffffffffffffffffffffffffffff0382111561067c5761067b610775565b5b828201905092915050565b6000610692826106f9565b915061069d836106f9565b9250828210156106b0576106af610775565b5b828203905092915050565b60006106c6826106d9565b9050919050565b60008115159050919050565b600073ffffffffffffffffffffffffffffffffffffffff82169050919050565b6000819050919050565b600060ff82169050919050565b60005b8381101561072e578082015181840152602081019050610713565b8381111561073d576000848401525b50505050565b6000600282049050600182168061075b57607f821691505b6020821081141561076f5761076e6107a4565b5b50919050565b7f4e487b7100000000000000000000000000000000000000000000000000000000600052601160045260246000fd5b7f4e487b7100000000000000000000000000000000000000000000000000000000600052602260045260246000fd5b600080fd5b6000601f19601f8301169050919050565b6107f2816106bb565b81146107fd57600080fd5b50565b610809816106f9565b811461081457600080fd5b5056fea264697066735822122080e577cd482df27d852dcf646555a8507fbd42b34bef63875623ebd665c1516964736f6c63430008070033",
  "immutableReferences": {},
  "source": "// SPDX-License-Identifier: MIT\npragma solidity ^0.8.7;\n\ncontract DaiToken {\n    string public name = \"Dapp Token\";\n    string public symbol = \"DAPP\";\n    uint256 public totalSupply = 1000000000000000000000000; // 1 million tokens\n    uint8 public decimals = 18;\n\n    event Transfer(address indexed _from, address indexed _to, uint256 _value);\n\n    event Approval(\n        address indexed _owner,\n        address indexed _spender,\n        uint256 _value \n    );\n\n    mapping(address => uint256) public balanceOf;\n    mapping(address => mapping(address => uint256)) public allowance;\n\n    constructor() {\n        balanceOf[msg.sender] = totalSupply;\n    }\n\n    function transfer(address _to, uint256 _value)\n        public\n        returns (bool success)\n    {\n        require(balanceOf[msg.sender] >= _value);\n        balanceOf[msg.sender] -= _value;\n        balanceOf[_to] += _value;\n        emit Transfer(msg.sender, _to, _value);\n        return true;\n    }\n}\n",
  "sourcePath": "/home/cthulhu/Programmation/DApps/stacktoken_app/src/contracts/DaiToken.sol",
  "compiler": {
    "name": "solc",
    "version": "0.8.7+commit.e28d00a7.Emscripten.clang"
  },
  "schemaVersion": "3.4.3",
  "updatedAt": "2021-09-23T14:03:33.793Z",
  "networkType": "ethereum",
  "devdoc": {
    "kind": "dev",
    "methods": {},
    "version": 1
  },
  "userdoc": {
    "kind": "user",
    "methods": {},
    "version": 1
  }
}